:020000040800F2
:10000000A8CA00202D020008491000089B0F000814
:10001000451000084D0900081336000800000000D4
:10002000000000000000000000000000C9300008CF
:10003000E90C00080000000001150008DD3100088F
:10004000470200084702000847020008470200086C
:10005000470200084702000847020008470200085C
:10006000470200084702000847020008470200084C
:10007000470200084702000847020008470200083C
:10008000470200084702000847020008470200082C
:10009000470200084702000847020008470200081C
:1000A000470200084702000847020008470200080C
:1000B00047020008470200084132000847020008D2
:1000C00047020008470200084702000847020008EC
:1000D00047020008F1330008470200084702000801
:1000E00047020008470200084702000847020008CC
:1000F00047020008470200084702000847020008BC
:100100004702000899170008470200084702000844
:10011000470200084702000847020008470200089B
:10012000470200084702000847020008470200088B
:1001300000F002F800F06BF80AA090E8000C82448E
:100140008344AAF10107DA4501D100F060F8AFF26B
:10015000090EBAE80F0013F0010F18BFFB1A43F0A5
:10016000010318479C3B0300BC3B03000A444FF0CB
:10017000000C10F8013B13F0070408BF10F8014B06
:100180001D1108BF10F8015B641E05D010F8016B4B
:10019000641E01F8016BF9D113F0080F1EBF10F8AF
:1001A000014BAD1C0C1B09D16D1E58BF01F801CBD2
:1001B000FAD505E014F8016B01F8016B6D1EF9D555
:1001C0009142D6D37047000000230024002500266A
:1001D000103A28BF78C1FBD8520728BF30C148BFAA
:1001E0000B607047642900F0C380752900F0C0805F
:1001F000782900F0F980632900F00983732900F061
:100200000E83002070471FB51FBD10B510BD00F054
:100210006BFB1146FFF7F7FF06F092FA00F089FB3F
:1002200003B4FFF7F2FF03BC03F073FB09488047F8
:1002300009480047FEE7FEE7FEE7FEE7FEE7FEE7C8
:10024000FEE7FEE7FEE7FEE704480549054A064BE0
:1002500070470000E131000831010008A8C4002007
:10026000A8CA0020A8C60020A8C60020704710B564
:100270004C1084EA530404D54042C1F1000138BF58
:10028000491E1B4204D55242C3F1000338BF5B1E16
:1002900000F0E3F914F0804F04D04042C1F10001B6
:1002A00038BF491E14F0004F04D05242C3F100037E
:1002B00038BF5B1E10BD00000FB4044910B503AA7F
:1002C000029800F0B1FA10BC5DF814FB4000002069
:1002D00070B5044685690068C10601D5302600E086
:1002E0002026C00707D070BDD4E9012130469047D1
:1002F000206A401C20626D1EF6D570BD70B50446A4
:1003000085690078C00707D170BDD4E9012120209C
:100310009047206A401C20626D1EF6D570BD70B5F6
:100320000C460546012A05D02878800600D5EA69E2
:10033000002302E0012305E05B1C934202D2E05C53
:100340000028F9D1A869E618C01AA861286A1844DB
:1003500028622846FFF7BCFF04E0D5E9012114F824
:10036000010B9047B442F8D32846FFF7C7FF70BD92
:100370002DE9F0410646002410687529314616A57E
:1003800010D0AFF30080002802DA404213A507E046
:1003900031688A0701D512A502E0490704D511A5E5
:1003A000012401E0AFF3008000210A2206F12407B6
:1003B00009E0B0FBF2FCB0FBF2F302FB1C003030B2
:1003C00078541846491C0028F3D123462A46304663
:1003D000BDE8F04100F0B8B9000000002D000000B9
:1003E0002B0000002000000070B504460D46214699
:1003F0001068AFF300802188090502D50F4A7A44BE
:1004000002E00E4A7A440E32002104F1240305E092
:1004100000F00F060009965D5E54491C0028F7D1D4
:1004200020780023000704D5702D02D009B10223E3
:1004300011322046BDE8704000F086B91036030046
:100440002DE9F05F894604464FF0000ADFF874B1E9
:10045000FB44C0F820A02046E1688847002874D0FB
:10046000252806D0D4E901219047206A401C20624B
:10047000F1E700265F462046E168884720280546C8
:1004800007DB312D05D2781910F8200C08B106438E
:10049000F1E7B00701D526F00406C4F81CA0002738
:1004A000C4F818A02A2D09D0284603F02BFA38B337
:1004B00004EB8708303DC8F8185019E059F8041BC0
:1004C000204604EB87029161E1688847012F0546C9
:1004D00018D1E069002820DA26F020061DE0D8F8BF
:1004E000180000EB800005EB40003038C8F8180019
:1004F0002046E1688847054603F004FA0028EED15B
:10050000012F0AD02E2D08D12046E16888477F1C94
:100510000546022F46F02006C4DBA069002803DA56
:10052000404246F00106A061F00701D026F0100617
:100530006C2D0BD0682D09D04C2D39D06A2D35D0BB
:10054000742D35D07A2D33D016E038E0E1682F468F
:1005500020468847B842054609D16C2F26D04FF473
:100560008060E168064320468847054604E06C2F1A
:100570001AD04FF4807006430DB3A5F1410019283D
:1005800002D8203546F400664A46294620462660B1
:100590004E46FFF727FE80B101280BD0F61D26F04E
:1005A000070000F1080956E74020E4E78020D8E77B
:1005B0000020D6E706F104094DE7284652E7206AF5
:1005C000BDE8F09FE6350300032A40F2308010F0CA
:1005D000030C00F0158011F8013BBCF1020F6244DE
:1005E00098BF11F801CB00F8013B38BF11F8013B6F
:1005F000A2F1040298BF00F801CB38BF00F8013B1C
:1006000011F0030300F02281083AC0F0088051F88D
:10061000043B083A51F804CBA0E80810F5E7121D96
:100620005CBF51F8043B40F8043BAFF30080D207B5
:1006300024BF11F8013B11F801CB48BF11F8012B81
:1006400024BF00F8013B00F801CB48BF00F8012BA4
:100650007047704770477047704753EA020C00F0CC
:1006600069802DE9F04B4FF00006002B1FBFB3FA55
:1006700083F503FA05F424FA05F65E4012BF16432B
:10068000B2FA82F502FA05F4C5F120051EBF22FA7E
:1006900005FC44EA0C04203556EA044C4FEA1444A5
:1006A00018BF641C4FF000084FF00009904271EB36
:1006B000030C39D3002919BFB1FA81F701FA07F603
:1006C000B0FA80F700FA07F6C7F120071EBF20FA3C
:1006D00007FC46EA0C062037B6FBF4FCA7EB05073F
:1006E000103F07F01F0BCBF120060CFA0BFB2CFA86
:1006F00006F644BFB3460026202FA4BF5E464FF047
:10070000000B5BEA060C08BF4FF0010B19EB0B095D
:10071000ABFB027C48EB0608C01B06FB02CC0BFBC4
:1007200003CC71EB0C01C1E70B460246414648463B
:10073000BDE8F08B13B54FF000004FF00001AFF3B0
:100740000080BDE81C4070472DE9F0470D469946F2
:100750009246044600F124080168880604D5E06941
:1007600021F01001216000E00120A84201DD471BBB
:1007700000E00027A1697A1902EB0900081AA061BC
:100780002078C00602D42046FFF7A2FD002608E02C
:10079000D4E901211AF806009047206A401C761C13
:1007A00020624E45F4DB2078C0060AD52046FFF7CC
:1007B0008FFD06E0D4E9012130209047206A401CDB
:1007C0002062381EA7F10107F4DC07E0D4E901211B
:1007D00018F805009047206A401C2062281EA5F1E9
:1007E0000105F3DC2046FFF789FD2078000602D5DD
:1007F0000220BDE8F0870120FBE710B5436913B183
:10080000AFF3008001E0FFF78AFD012010BD1278F0
:1008100000F124010A7000224A700122EDE71168FC
:100820004FF0FF32E9E70000074B70B50D467B44FF
:1008300000F043F80446284600F052F810B14FF09B
:10084000FF3070BD204670BDB75B000010B5203A88
:10085000C0F00B80B1E81850203AA0E81850B1E879
:100860001850A0E81850BFF4F5AF5FEA027C24BF2F
:10087000B1E81850A0E8185044BF18C918C0BDE826
:1008800010405FEA827C24BF51F8043B40F8043BEF
:1008900008BF7047D20728BF31F8023B48BF11F8A4
:1008A000012B28BF20F8023B48BF00F8012B7047FE
:1008B00001694A1C02610878704700B58FB0CDE924
:1008C00001310021059105497944CDE90310114614
:1008D0006846FFF7B5FD0FB000BD0000E5FFFFFF64
:1008E000007B00F080007047754600F02BF8AE46A4
:1008F00005006946534620F00700854618B020B52C
:10090000FFF7A2FCBDE820404FF000064FF00007C3
:100910004FF000084FF0000B21F00701AC46ACE8A7
:10092000C009ACE8C009ACE8C009ACE8C0098D4614
:10093000704710B50446AFF300802046BDE8104074
:10094000FFF76EBC0048704744C4002000BFFEE7BC
:1009500070B500254FF4803404E0802000F008FFDB
:1009600000B103E0201EA4F10104F6D100BF0CB9D0
:10097000032070BD40F2FF5000F0B4FE2846F8E7B7
:1009800070B5044605E01548456B05F0450000B11B
:1009900000E0F8E700BF042000F0EAFE20B10420E8
:1009A00000F0A0FE032070BD012000F0E1FE20B1A8
:1009B000012000F097FE0120F5E708480069A042F9
:1009C00001D01020EFE740F2FF5004498863084649
:1009D000406908210840C0B2E5E7000000800140FE
:1009E00070B500264FF4803505E01148446B04F0E3
:1009F000450000B103E0281EA5F10105F5D100BFB7
:100A000015B104F0040028B10326042000F06AFEAA
:100A1000304670BD012000F0ABFE18B10126012068
:100A200000F060FE40F2FF5000F05CFE3046F0E760
:100A30000080014010B505E00B48446B04F0450010
:100A400000B100E0F8E700BF042000F091FE20B103
:100A5000042000F047FE032010BD40F2FF5000F0DC
:100A600041FE0020F8E70000008001402DE9F04140
:100A700005460E464FF0000805E01F48476B07F09B
:100A8000450000B100E0F8E700BF042000F070FE70
:100A900028B1042000F026FE0320BDE8F0810120EB
:100AA00000F066FE20B1012000F01CFE0120F4E7FA
:100AB00011480069A84201D01020EEE740F2FF5033
:100AC00000F010FE0C48446904F4604018B9200C92
:100AD00030804046E1E704F4005008B11320DCE721
:100AE00004F4804008B11020D7E704F4004008B1B6
:100AF0000F20D2E74046D0E70080014070B50026C5
:100B00004FF4803505E00F48446B04F0450000B118
:100B100003E0281EA5F10105F5D100BF15B104F0D1
:100B2000040028B10326042000F0DCFD304670BD2F
:100B300004F0400018B10026402000F0D3FD3046FC
:100B4000F5E700000080014021B1026842F0010297
:100B5000026004E002684FF6FE731A4002607047BC
:100B600001684FF6FE721140016000210160416092
:100B70008160C1604B49884208D14A4908394968B7
:100B800041F00F01474A083A51608AE04549143163
:100B9000884208D143490839496841F0F001414A87
:100BA000083A51607DE03F492831884208D13D49EB
:100BB0000839496841F470613A4A083A516070E076
:100BC00038493C31884208D136490839496841F4EE
:100BD0007041344A083A516063E0324950318842EA
:100BE00008D130490839496841F470212D4A083A42
:100BF000516056E02B496431884208D129490839AF
:100C0000496841F47001274A083A516049E0254992
:100C10007831884208D123490839496841F0706128
:100C2000204A083A51603CE01F49884206D1011F22
:100C3000096841F00F01021F116032E01A491431B6
:100C4000884208D11849091F096841F0F001164A85
:100C5000121F116025E014492831884208D1124939
:100C6000091F096841F470610F4A121F116018E0F2
:100C70000D493C31884208D10B49091F096841F4EC
:100C80007041094A121F11600BE007495031884238
:100C900007D10549091F096841F47021024A121F52
:100CA00011607047080002400804024010B500229D
:100CB000026847F6F0739A430C6A8B6823430C6909
:100CC00023434C6923438C692343CC6923434C6AF7
:100CD00023438C6A23431A430260CB6843600B684A
:100CE00083604B68C36010BD704700002DE9FC4174
:100CF00007460D46002600240020009001900820A1
:100D00005B49086010204860402088600020C8606F
:100D10004FF480600861084600F060FD1020FFF786
:100D20002FFE044614B12046BDE8FC8151480088DE
:100D300000044F4908603720486040208860002048
:100D4000C8604FF480600861084600F047FD372016
:100D5000FFF716FE04460CB12046E5E74FF0FF30E2
:100D60004549086008204860302088600220C8603B
:100D70000020086101204861084600F0CFFC0020F7
:100D80003B49086033204860402088600020C860EC
:100D90004FF480600861084600F020FD3320FFF723
:100DA000EFFD04460CB12046BEE70CE04FF4001006
:100DB00000F0DEFC38B100F00BFD4DF82600761C8B
:100DC000022E00D306E02D48406B40F22A61084015
:100DD0000028EBD000BF082000F0CAFC20B108209A
:100DE00000F080FC04209FE7022000F0C1FC20B14D
:100DF000022000F077FC022096E7202000F0B8FCEB
:100E000020B1202000F06EFC06208DE74FF400702A
:100E100000F0AEFC28B14FF4007000F063FC072036
:100E200082E740F2FF5000F05DFC00980006009958
:100E300001F47F4140EA0120009901F47F0140EA7A
:100E40001120009940EA116068600198000601993C
:100E500001F47F4140EA0120019901F47F0140EA59
:100E60001120019940EA1160286020465CE70000EB
:100E700088120020080000209C1200200080014001
:100E80002DE9F04102460025002600200023002421
:100E9000002791F803C00CF00F0591F803C00CF087
:100EA000100CBCF1000F03D091F802C04CEA05050C
:100EB00091F800C0BCF1000F31D0146800202BE085
:100EC0004FF0010C0CFA00F3B1F800C00CEA030675
:100ED0009E4220D183004FF00F0C0CFA03F7BC4365
:100EE00005FA03FC4CEA040491F803C0BCF1280F96
:100EF00006D14FF0010C0CFA00FCC2F814C00AE055
:100F000091F803C0BCF1480F05D14FF0010C0CFA69
:100F100000FCC2F810C0401C0828D1D31460B1F8FE
:100F200000C0BCF1FF0F34DD546800202EE000F15A
:100F3000080C4FF0010808FA0CF3B1F800C00CEAF5
:100F400003069E4221D183004FF00F0C0CFA03F7E9
:100F5000BC4305FA03FC4CEA040491F803C0BCF15D
:100F6000280F05D100F1080C08FA0CF8C2F814801B
:100F700091F803C0BCF1480F07D100F1080C4FF005
:100F8000010808FA0CF8C2F81080401C0828CED3DB
:100F90005460BDE8F0810161704700BFFEE772B6A2
:100FA000704762B6704700001CB5044600200190EF
:100FB0000090214800880004204908600D20486006
:100FC000402088600020C8604FF4806008610846B7
:100FD00000F004FC1A48406B009002E01848406B97
:100FE0000090009800F045000028F7D0012000F0A4
:100FF000BFFB20B1012000F075FB01201CBD0420C7
:1010000000F0B6FB20B1042000F06CFB0320F5E7F4
:101010000B4800690D2801D01020EFE740F2FF5087
:1010200000F060FB0648406901900198C0F343203E
:1010300020700020E2E70000080000208812002055
:101040000080014000BFFEE77047000070B500213E
:1010500000230F22C47804B3154C246804F4E06420
:10106000C4F5E064210AC1F10403CA40447804FADB
:1010700003F184781440214309010E4C0678A155F0
:10108000047804F01F050124AC4005786D11AD0013
:1010900005F1E025C5F8004109E0047804F01F05DA
:1010A0000124AC40044D0678761145F8264070BD09
:1010B0000CED00E000E400E080E100E000B500207D
:1010C0000CE0002106E00022074B03EBC1031A5499
:1010D0004A1CD1B28029F6DB411CC8B20828F0DBDB
:1010E00000F0E2F800BD00003015002030B50446E5
:1010F000002500200EE0002108E0625D084B03EBB4
:10110000C1031A546A1C95B24A1CD1B28029F4DB7F
:10111000411CC8B20828EEDB00F0C6F830BD000064
:1011200030150020F0B515467F2801DC3F2900DD91
:10113000F0BD0C46CF1701EB5777FF10C7F107073B
:10114000FAB2CF1701EB5777FF10A1EBC707FEB23A
:10115000C6F107070124BC40E3B24DB10A4C04EBD1
:10116000C004A45C1C43084F07EBC007BC5408E054
:10117000054C04EBC004A45C9C43034F07EBC00781
:10118000BC5400BFD4E700003015002008B5012191
:10119000202000F0D7F9F820ADF8000010208DF8DD
:1011A000030003208DF8020069463C48FFF768FE03
:1011B000F8213A48FFF7EFFE002039490860642023
:1011C00002F03AFE01203749C1F890010021AE201B
:1011D00000F068F90021D52000F064F9002180209A
:1011E00000F060F90021A82000F05CF900213F2008
:1011F00000F058F90021D32000F054F900210846EE
:1012000000F050F90021402000F04CF900218D2021
:1012100000F048F90021142000F044F900212020BA
:1012200000F040F90021022000F03CF90021A1204B
:1012300000F038F90021C82000F034F90021DA204C
:1012400000F030F90021122000F02CF9002181205B
:1012500000F028F90021EF2000F024F90021D92026
:1012600000F020F90021F12000F01CF90021DB2022
:1012700000F018F90021302000F014F90021A4201A
:1012800000F010F90021A62000F00CF90021AF2099
:1012900000F008F9FFF712FF08BD0000001401403C
:1012A000908122420080224230B500241CE004F1EB
:1012B000B001C8B2002100F0F5F80021084600F0A6
:1012C000F1F80021102000F0EDF8002508E00849B1
:1012D00001EBC501085D012100F0E4F8681CC5B20E
:1012E000802DF4DB601CC4B2082CE0DB30BD0000B4
:1012F0003015002000B50021AE2000F0D3F8002109
:10130000D52000F0CFF80021802000F0CBF800219C
:10131000A82000F0C7F800213F2000F0C3F800210A
:10132000D32000F0BFF80021084600F0BBF80021F0
:10133000402000F0B7F800218D2000F0B3F8002124
:10134000142000F0AFF80021202000F0ABF80021BD
:10135000022000F0A7F80021A12000F0A3F800214E
:10136000C02000F09FF80021DA2000F09BF8002157
:10137000122000F097F80021812000F093F800215E
:10138000EF2000F08FF80021D92000F08BF8002129
:10139000F12000F087F80021DB2000F083F8002125
:1013A000302000F07FF80021A42000F07BF800211D
:1013B000A62000F077F80021AF2000F073F8FFF7C7
:1013C0007DFE00BD2DE9F04F07460C461546A146AF
:1013D0004FF0100AA5F12000C5B200262DE01948F3
:1013E00000EB051010F806804FF0000B1FE008F02E
:1013F000800028B1012221463846FFF793FE04E021
:10140000002221463846FFF78DFE4FEA48604FEA3A
:101410001068601CC4B2A4EB0900504503D14C46CF
:10142000781CC7B206E00BF1010000F0FF0BBBF126
:10143000080FDCDB00BF701CC6B25645CFDBBDE831
:10144000F08F000006870008F0B506460F461546E7
:1014500010241DE004EBD4714910C1F18001B142A8
:1014600002DA00263819C7B2C4F14000B84203DAE4
:1014700000270026FFF722FE2A7839463046FFF77C
:10148000A1FF204604EBD07106EB6101CEB26D1CCA
:1014900028787E2802DC28782028DBDAFFF704FF92
:1014A000F0BD000010B50022134B1A60134AC2F8B9
:1014B0009411002216E000230F4C0C34236000F03E
:1014C00080031BB10123241D236003E000230A4C89
:1014D000103423600123084C0C3423604306180E9B
:1014E000531CDAB2082AE6DB0122034B08331A60E8
:1014F000024BC3F88C2110BD8C8122420080224215
:101500007047000029B1064A52690243044B5A61F0
:1015100004E0034A52698243014B5A61704700005C
:101520000010024029B1064AD2690243044BDA6135
:1015300004E0034AD2698243014BDA61704700003C
:101540000010024029B1064A92690243044B9A6195
:1015500004E0034A92698243014B9A61704700009C
:101560000010024030B500210022002400232D4D40
:101570006D6805F00C0121B1042905D0082923D19B
:1015800005E0294D056022E0274D05601FE0254D4F
:101590006D6805F47012234D6D6805F480340225E2
:1015A00005EB92421CB9214D554305600BE01D4DE2
:1015B0006D6805F400351DB11C4D5543056002E012
:1015C000194D5543056002E0174D056000BF00BF8F
:1015D000144D6D6805F0F0010909154D6B5C056847
:1015E000DD4045600F4D6D6805F4E061090A104D5E
:1015F0006B5C4568DD4085600A4D6D6805F460519F
:10160000C90A0B4D6B5C4568DD40C560054D6D68D2
:1016100005F44041890B074D6B5CC568B5FBF3F5DC
:10162000056130BD0010024000127A0000093D0043
:1016300028000020380000207CB50546002400204A
:101640000090019000260DB1022600E000262248FD
:10165000406900F0007008B10E207CBD1F49098868
:1016600088B26946FFF742FB04460CB12046F4E716
:10167000019800F4802060B31848008800041849DD
:10168000086037204860402088600020C8604FF420
:1016900080600861084600F0A1F83720FFF770F974
:1016A00004460CB12046D8E70D48066006200C49D8
:1016B0004860402088600020C8604FF48060086166
:1016C000084600F08BF80620FFF75AF9044620463A
:1016D000C3E72520C1E7000000800140080000208A
:1016E0008812002001498863704700000080014093
:1016F0000149086070470000A00030420146034ADB
:10170000506820F0FF00084350607047008001409F
:1017100001490860704700008C05304200210A4BE7
:1017200002685A6242689A621A46D16A21F0F70149
:10173000D0E902231A4303691A4343691A43114348
:10174000014AD16270470000008001400020064934
:10175000086048608860C86048628862C862034860
:1017600088630020C863704700800140FF07C00005
:1017700001460020034A526B0A400AB1012000E0F2
:1017800000207047008001400248006800F003001C
:10179000704700000080014010B500F053FC10BD00
:1017A00000210A4A516847F6FF629143027D83682F
:1017B0001A4343681A43C3681A4303681A43036908
:1017C0001A431143014A51607047000000800140F4
:1017D0000148006870470000808001400021094BEB
:1017E00002689A601A46D1686FF30A01D0E90123B2
:1017F0001A43C3681A4303691A431143014AD1606B
:1018000070470000008001400549096821F003018C
:10181000034A1160114609680143116070470000D6
:10182000008001400149086070470000808001404D
:1018300070B58CB006460C46154601210220FFF714
:1018400061FE1348FFF78CF900211148FFF77CF97E
:101850001048019002960395A0080490002005907E
:10186000802006908000079080000890002009905A
:101870004FF400500A9000200B9001A90448FFF794
:1018800015FA00210248FFF75FF90CB070BD0000A7
:10189000440402408080014070B50446002516488B
:1018A0000078032801D1272070BD1348007838B193
:1018B00011480078012803D00F480078022818D179
:1018C000022C01D32720EFE7E0B2FFF7B5FE054673
:1018D0007DB90A48406820F4C0500849486008466D
:1018E0004068A1B240EAC120044948600846406807
:1018F00048602846D8E7000004000020008001402E
:10190000F0B5014600200022BE4B1B7881F856300E
:10191000BD4B1B88A1F85430BC4B1B681A0E9309B1
:101920000B70C2F383034B7002F003038B70B74B51
:101930001B68C3F30742CA70B44B1B88C3F307226A
:101940000A71B24B1A784A715B681A0E1301CB8088
:10195000AE4B5B68C3F30742CB8843EA1213CB80DC
:1019600002F00F030B72A94B9B88C3F30722D30924
:101970004B72C2F380138B72C2F34013CB72C2F36B
:1019800000130B7300234B739E4B1B783BB19D4B95
:101990001B78012B03D09B4B1B78032B4FD1930754
:1019A0001B0D0B61994B1A790B6943EA82030B619A
:1019B000964B9B681A0E0B6943EA92130B61C2F3B4
:1019C000C2030B7502F007034B75904B9B68C3F382
:1019D000074253098B75C2F38203CB7593075B0FE4
:1019E0000B768A4B1B89C3F307220B7E43EAD21383
:1019F0000B760B695B1C0024C1E912340B7E9B1C27
:101A0000012404FA03F3DC17D1E91256A5FB037C89
:101A100006FB03C305FB0433C1E912730C7A0123EF
:101A2000A3400B650024D1E912650B6DA6FB037C76
:101A300005FB03C306FB0433C1E912732EE0714BAF
:101A40001B78022B2AD1714B1A7993069B0A0B61E2
:101A50006E4B9B681A0E0B6943EA02230B616B4BBA
:101A60009B68C3F307420B6913430B61674B1B89E8
:101A7000C3F307220B695B1C4FF40074A3FB0446FD
:101A80004FF480630025A4FB037C06FB03C304FB27
:101A90000533C1E912734FF400730B65C2F3801371
:101AA00001F8193F93065B0E4B70584B1A7A4B782E
:101AB00043EAD2134B7002F07F038B70534BDB6809
:101AC0001A0ED309CB70C2F341130B71C2F3820318
:101AD0004B7193071B0F8B714C4BDB68C3F30742B1
:101AE0008B7943EA92138B71C2F34013CB710023BD
:101AF0000B7202F001034B72444B9B89C3F3072224
:101B0000D3098B72C2F38013CB72C2F340130B73F1
:101B1000C2F300134B73C2F381038B7302F0030310
:101B2000CB733A4B1A7B53080B7401234B74384B1D
:101B30001B681A0ECA741939354B1B68C3F3074268
:101B40001402CC85324B1B88C3F30722CB8D134381
:101B5000CB852F4B1A7814060C635B681A0E0B6B3F
:101B600043EA02440C632A4B5B68C3F307420B6BE6
:101B700043EA02240C63264B9B88C3F307220B6BBA
:101B800013430B63224B1A7934235A54204B9B681E
:101B90001A0E35235A541E4B9B68C3F30742140692
:101BA0008C631B4B1B89C3F307228B6B43EA0244F4
:101BB0008C63174B1A7A8B6B43EA02248C63144BA9
:101BC000DB681A0E8B6B13438B63114BDB68C3F31B
:101BD00007423C235B5C43EA12143C235C5413072A
:101BE0001C0DCC870A4B9B89C3F30722CB8F134371
:101BF000CB87074B1A7B540840235C5401244123B4
:101C00005C54F0BD0400002008000020B412002045
:101C1000C41200207CB50025002401213020FFF7EC
:101C200091FC012140F20240FFF76CFC4FF4F850A8
:101C3000ADF8000018208DF8030003208DF8020095
:101C400069463048FFF71CF90420ADF80000182061
:101C50008DF8030003208DF8020069462A48FFF73B
:101C60000FF98020ADF8000048208DF80300032014
:101C70008DF8020069462448FFF702F9FFF766FD78
:101C800031208DF8040000208DF805008DF8060045
:101C900001208DF8070001A8FFF7D8F900F0E4F85B
:101CA000044614B900F036F804461CB91748FFF78B
:101CB00027FE044634B91549B1F85410080400F061
:101CC0004BFD04461CB90120FFF7E6FD04461CB19C
:101CD0000F480078032812D10C4890F8560020B124
:101CE0000A4890F85600012801D10A2500E0042591
:101CF0002846FFF703FD002000F046FD044620467D
:101D00007CBD00000010014000140140D8120020EA
:101D10000400002038B5002401200090FFF734FDB6
:101D200008B9252038BD4A480078042821D0002071
:101D30004849086002204860C02088600020C860D0
:101D40004FF4806008610846FFF748FDFEF748FE43
:101D500004460CB12046E5E73F4840693F4908602A
:101D60003D48806948603C48C06988603A48006ADC
:101D7000C8603748007858B135480078012807D046
:101D800033480078062803D031480078022816D15D
:101D9000002030490860032048604020886000200F
:101DA000C8604FF4806008610846FFF717FD694678
:101DB0000320FEF75BFE04460CB12046B2E7244840
:101DC0000078032816D1BDF80000000421490860FE
:101DD00003204860402088600020C8604FF4806085
:101DE00008610846FFF7FAFCFEF7FAFD04460CB15D
:101DF000204697E716480078042827D0BDF8000051
:101E000017490860BDF80000000412490860092065
:101E10004860C02088600020C8604FF4806008617E
:101E20000846FFF7DBFCFEF7DBFD04460CB120465D
:101E300078E7094840690B490860074880694860AD
:101E40000548C06988600448006AC860002069E7E6
:101E5000040000208812002000800140C4120020ED
:101E600008000020B41200202DE9F04700270024CC
:101E700000260025A046A146B2206C490875002026
:101E8000086048608860C86008610846FFF788FC01
:101E90000320FFF7B9FC0120FFF72AFC00BF12E086
:101EA00000206349086048608860C8604FF4806023
:101EB00008610846FFF792FCFEF74AFD044604B9A4
:101EC00003E0781CC7B24A2FEADB00BF14B12046FA
:101ED000BDE8F0874FF4D570554908600820486088
:101EE000402088600020C8604FF480600861084688
:101EF000FFF774FCFEF702FE044624B901204D49A9
:101F000008704FF080490020494908603720486038
:101F1000402088600020C8604FF480600861084657
:101F2000FFF75CFC3720FEF72BFD0446002C4BD15D
:101F300034E000203E490860372048604020886037
:101F40000020C8604FF4806008610846FFF746FC37
:101F50003720FEF715FD04460CB12046B8E7364899
:101F600049EA000032490860292048604020886022
:101F70000020C8604FF4806008610846FFF72EFC1F
:101F8000FEF758FD04460CB12046A1E72B484669F0
:101F9000012080EAD67080F001086D1CB8F1000FB6
:101FA00003D14FF6FF708542C3D34FF6FF708542D1
:101FB00002D31B2420468BE706F08040061E32D059
:101FC00002201C4908702EE01CE01D4818490860DA
:101FD00001204860402088600020C8604FF4806085
:101FE00008610846FFF7FAFBFEF724FD04460CB132
:101FF00020466DE711484669012080EAD67080F0DE
:1020000001086D1CB8F1000F03D14FF6FF70854237
:10201000DBD34FF6FF70854202D31B24204657E7DF
:10202000032004490870204652E700007012002087
:102030008812002004000020000010800080014071
:102040000080FF8010B54948406B00F4807070B389
:1020500047480078012814D10020464908600C2028
:102060004860402088600020C8604FF480600861AC
:102070000846FFF7B3FB0C20FEF782FC3E490870D0
:1020800002E000203C4908703848806B40F48070C2
:10209000364988630846C06B4CF23A31884333496D
:1020A000C8630120354908703348007810BDFFE748
:1020B0000220FFF75DFB68B10220FFF713FB2B48FE
:1020C000C06B4CF23A3188432849C86302202A4940
:1020D0000870EBE70820FFF74BFB68B10820FFF71B
:1020E00001FB2248C06B4CF23A3188431F49C86358
:1020F000042021490870D9E72020FFF739FB68B197
:102100002020FFF7EFFA1948C06B4CF23A318843B0
:102110001649C863062018490870C7E71020FFF762
:1021200027FB68B11020FFF7DDFA1048C06B4CF2B6
:102130003A3188430D49C86305200F490870B5E757
:102140004FF40070FFF714FB70B14FF40070FFF70D
:10215000C9FA0648C06B4CF23A3188430349C86358
:10216000072005490870A1E700209FE70080014093
:102170000D000020881200200E0000200F0000201B
:102180002DE9F84F8146174698460A9C4FF0000A01
:10219000D3464D464FF0FF36B9F1000F02D126204D
:1021A000BDE8F88F00208249C86282480078022882
:1021B00005D10402780A40EAC8574FEA682800208F
:1021C0007D4988604860401E086001204861002009
:1021D000C86008610846FFF7A1FA7548406900F039
:1021E000007008B10E20DBE7002C21DDB4F5006F94
:1021F0001EDC601E2040D8B9204601F04FFC009044
:102200006E48046010206D494860402088600020BE
:10221000C8604FF4806008610846FFF7DFFA1020BD
:10222000FEF7AEFB8246BAF1000F03D05046B7E787
:102230002620B5E7009800015F49886008464460A1
:102240004FF0FF300860012048610220C860002084
:1022500008610846FFF762FA58480760112057499D
:102260004860402088600020C8604FF480600861AA
:102270000846FFF7B3FA1120FEF782FB8246BAF157
:10228000000F01D050468BE74D48007800285AD106
:10229000FEF785FE18E04FF40040FFF769FA78B1C9
:1022A0004FF0000B06E042488030006845F82B00F4
:1022B0000BF1010BBBF1080FF5D32035414E03E0C4
:1022C0000EB904206CE7761E3948406B40F22A6153
:1022D00008400028DFD00820FFF74AFA20B1082084
:1022E000FFF700FA04205BE70220FFF741FA20B174
:1022F0000220FFF7F7F9022052E72020FFF738FA13
:1023000020B12020FFF7EEF9062049E74FF40070D6
:10231000FFF72EFA28B14FF40070FFF7E3F907201A
:102320003EE703E0FFF754FA28602D1D4FF400103C
:10233000FFF71EFA0028F5D1FEF733FE40F2FF50FA
:10234000FFF7D0F931E01E48007801282DD1002296
:1023500021464846FFF76CFA00201B4908701B49CC
:1023600008701B4908701248C06B40F22A310843BC
:102370000F49C8630120FFF7CBF900E0761E15482E
:10238000006800F4005038B91148007820B90E48B0
:10239000007808B9002EF1D10EB9042000E70A48F0
:1023A000007810B1084890F800A05046F8E6000008
:1023B00000800140040000209C12002088120020B0
:1023C0000C000020FFFF7F000E0000200D00002009
:1023D0000F000020000402402DE9FE4F83460C460A
:1023E000914600200290002625462C46700240EAC5
:1023F000D5566D020BF00300F0B14FF0000A18E063
:102400004FF4007000904FEA4A20471946EBE07302
:102410003A461648FFF7B4FE02904FF40072134993
:102420005846FEF7D1F80BF5007B0AF1010000F0E9
:10243000FF0ACA45E4DB16E0B9F1010F09D14FF4F8
:1024400000702A46334600905846FFF799FE0290E6
:1024500009E04FF400702A463346CDE9000958469A
:1024600000F006F802900298BDE8FE8F30130020BD
:102470002DE9FF5F17469846DDE90E464FF000094B
:10248000CA464FF0FF35A949009808600020A849C6
:10249000C862A8480078022805D10402780A40EAF8
:1024A000C8574FEA68280020A34988604860401E4A
:1024B0000860012048610020C86008610846FFF7F5
:1024C0002DF99B48406900F0007018B10E2004B04F
:1024D000BDE8F09F002C21DDB4F5006F1EDC601E0E
:1024E0002040D8B9204601F0D9FA834693480460C9
:1024F000102092494860402088600020C8604FF456
:10250000806008610846FFF769F91020FEF738FA85
:102510008146B9F1000F03D04846D8E72620D6E718
:10252000012E70D906FB04F0B0F1007F01D3262004
:10253000CDE74FEA0B108049886006FB04F0486045
:102540004FF0FF300860012048610220C860002081
:1025500008610846FFF7E2F87848076012207749DB
:102560004860402088600020C8604FF480600861A7
:102570000846FFF733F91220FEF702FA8146B9F157
:10258000000F01D04846A2E76D48007800287DD1B1
:10259000FEF705FD1EE04FF40040FFF7E9F8A8B193
:1025A0004FF0000A08E06248803000685F4909681F
:1025B00041F82A000AF1010ABAF1080FF3D35B4887
:1025C00000682030594908605E4D03E00DB90420D1
:1025D0007DE76D1E5648406B40F22A3108400028C6
:1025E000D9D00820FFF7C4F820B10820FFF77AF807
:1025F00004206CE70220FFF7BBF828B10220FFF7A8
:1026000071F8022063E78EE02020FFF7B1F820B1D7
:102610002020FFF767F8062059E74FF40070FFF716
:10262000A7F828B14FF40070FFF75CF807204EE7D9
:1026300009E0FFF7CDF83D49096808603B480068AC
:10264000001D3A4908604FF40010FFF791F8002888
:10265000EFD14FF48070FFF78BF820B33548007846
:1026600038B134480078012803D032480078022875
:1026700019D10020314908600C2048604020886052
:102680000020C8604FF48060086100E012E0084656
:10269000FFF7A4F80C20FEF773F98146B9F1000F9B
:1026A00001D0484613E7FEF77CFC40F2FF50FFF7ED
:1026B00019F838E022480078012834D106FB04F1EB
:1026C00000220098FFF7B4F800201F49087001208D
:1026D0001E49087000201E4908701548C06B40F262
:1026E0002A3108431249C8630846C06A40F008000E
:1026F000C86200E06D1E1748006800F4005008B979
:10270000002DF7D10DB90420E1E600BF1048007894
:1027100018B90D4800780028F8D00B48007810B19F
:10272000094890F800904846D1E6000010000020CB
:1027300000800140040000209C120020881200202C
:102740000C000020FFFF7F000E0000200D00002085
:102750000F0000200004024010B504460948046040
:10276000072008494860402088600020C8604FF476
:10277000806008610846FFF731F80720FEF700F98E
:1027800010BD00008812002001460020012900D061
:1027900011B9024B197000E0262070470C00002090
:1027A0002DE9FF5F86B017469846149D002600204D
:1027B0000590049000248146039082460290019582
:1027C000DDF818B0DDF818B0BBF1000F03D12620FA
:1027D0000AB0BDE8F09F0020C449C862C4498860BF
:1027E0004860401E0860012048610020C860086100
:1027F0000846FEF793FFBD48406900F0007008B13D
:102800000E20E5E7BB480078022805D10502780ACA
:1028100040EAC8574FEA6828002D1FDDB5F5006F64
:102820001CDC681E2840C8B9284601F037F905901D
:10283000B14805601020B049486040208860002001
:10284000C8604FF4806008610846FEF7C7FF10209B
:10285000FEF796F806461EB13046B9E72620B7E7E0
:10286000A64800880004A44908600D204860402064
:1028700088600020C8604FF4806008610846FEF759
:10288000ADFF0D20FEF77CF806460EB130469FE7FF
:102890009648406903904FF0FF341BE0641E974850
:1028A00000880004944908600D204860402088603A
:1028B0000020C8604FF4806008610846FEF78EFF74
:1028C0000D20FEF75DF806460EB1304680E78748DA
:1028D00040690390039800F4807008B9002CDDD1A2
:1028E0000CB9292074E784480760182082494860A1
:1028F000402088600020C8604FF48060086108466E
:10290000FEF76CFF1820FEF73BF806460EB1304686
:102910005EE700207A4908700598000174498860D4
:10292000084645604FF0FF300860012048610020F4
:10293000C86008610846FEF7F1FE4FF0FF347148A9
:10294000007800287BD1FEF72AFB43E04FF480405B
:10295000FEF70EFFC8B30198A0EB0900202821D292
:102960000198A0EB090000F0030020B90198A0EB4A
:102970000900800804E00198A0EB09008008401CD1
:1029800002904FF0000A09E0DBF80000FEF74AFF72
:102990000AF1010A0BF1040B09F1040902988245BE
:1029A000F2D30FE04FF0000A05E05BF82A00FEF7D3
:1029B00039FF0AF1010ABAF1080FF6D30BF1200B27
:1029C00009F120096FF0404404E0FFE70CB904204E
:1029D000FEE6641E4548406B40F21A61084000283C
:1029E000B4D00820FEF7C4FE20B10820FEF77AFE1E
:1029F0000420EDE60220FEF7BBFE20B10220FEF728
:102A000071FE0220E4E61020FEF7B2FE20B1102095
:102A1000FEF768FE0520DBE64FF40070FEF7A8FE27
:102A200030B14FF40070FEF75DFE0720D0E606E0FF
:102A3000FEF7B7FA40F2FF502C4988633EE0314878
:102A4000007801283AD1102229460698FEF7F0FEB8
:102A500000202D4908702A4908702C490870234825
:102A6000C06B40F21A3108432049C8630846C06A67
:102A700040F00800C86200E0641E2548006800F4C9
:102A8000005008B9002CF7D11CB9FFF7C3F8042097
:102A90009EE64FF0FF3400E0641E1C48007820B929
:102AA0001948007808B9002CF6D10CB904208FE63B
:102AB0001548007810B11448007889E640F2FF50BC
:102AC000FEF710FE04A8FEF76FFA064603E004A81E
:102AD000FEF76AFA06463EB99DF810000728F6D0C0
:102AE0009DF810000628F2D0304671E600800140C3
:102AF0009C12002004000020881200200800002002
:102B00000D0000200C0000200E0000200F0000200F
:102B1000000402402DE9FE4F81460C4692460020FB
:102B20000290002625462C46700240EAD5566D02DA
:102B300009F00300F0B14FF0000B18E04FF4007201
:102B400049461948FDF740FD4FF4007000904FEAE8
:102B50004B20471946EBE0733A461348FFF720FE37
:102B6000029009F500790BF1010000F0FF0BD3454D
:102B7000E4DB16E0BAF1010F09D14FF400702A46E8
:102B8000334600904846FFF70BFE029009E04FF4F1
:102B900000702A463346CDE9000A484600F006F8A0
:102BA00002900298BDE8FE8F301300202DE9FF5FF0
:102BB00084B0DDE912470026002003900290002532
:102BC00080468146019007FB04FBDDF810A0DDF88C
:102BD00010A0BAF1000F03D1262008B0BDE8F09F85
:102BE0000020D849C862D84988604860401E086003
:102BF000012048610020C86008610846FEF78EFD8C
:102C0000D048406900F0007008B10E20E5E7CF48D9
:102C10000078022808D10402DDE90601400A40EAF2
:102C2000C1504912CDE90601002C1FDDB4F5006F3B
:102C30001CDC601E2040C8B9204600F02FFF039026
:102C4000C34804601020C2494860402088600020CA
:102C5000C8604FF4806008610846FEF7BFFD102091
:102C6000FDF78EFE06461EB13046B6E72620B4E7D5
:102C7000012F6FD907FB04F0B0F1007F01D32620AC
:102C8000ABE7B248007838B1B0480078012803D0EB
:102C9000AE48007802282DD1AE4800880004AC4927
:102CA000086037204860402088600020C8604FF4EA
:102CB000806008610846FEF791FD3720FDF760FE51
:102CC00006460EB1304688E7A14807601720A049A4
:102CD0004860402088600020C8604FF48060086130
:102CE0000846FEF77BFD1720FDF74AFE06460EB1AB
:102CF000304672E7964906980860192048604020DF
:102D000088600020C8604FF4806008610846FEF7C4
:102D100065FD1920FDF734FE06460EB130465CE72E
:102D2000039800018849886007FB04F048604FF071
:102D3000FF300860012048610020C8600861084633
:102D4000FEF7ECFC84480078002871D1451EFEF7A0
:102D500026F940E0DEE07B48406B00F48040A8B3F9
:102D6000ABEB080020281ED2ABEB080000F00300FC
:102D700018B9ABEB0800800803E0ABEB0800800853
:102D8000401C01904FF0000909E0DAF80000FEF75E
:102D900049FD09F101090AF1040A08F10408019842
:102DA0008145F2D30FE04FF0000905E05AF8290001
:102DB000FEF738FD09F10109B9F1080FF6D30AF160
:102DC000200A08F120086FF0404504E0FFE70DB944
:102DD000042002E76D1E5B48406B40F21A31084048
:102DE0000028B8D00820FEF7C3FC20B10820FEF769
:102DF00079FC0420F1E60220FEF7BAFC20B10220A3
:102E0000FEF770FC0220E8E61020FEF7B1FC20B1CE
:102E10001020FEF767FC0520DFE64FF40070FEF798
:102E2000A7FC30B14FF40070FEF75CFC0720D4E63D
:102E30002CE04FF48070FEF79BFC00B34348007811
:102E400038B142480078012803D040480078022871
:102E500015D100203E4908600C2048604020886061
:102E60000020C8604FF4806008610846FEF7B6FC99
:102E70000C20FDF785FD06460EB13046ADE6FEF7A7
:102E800090F840F2FF50FEF72DFC43E03248007806
:102E900001283FD107FB04F110220498FEF7C8FC7B
:102EA00000202E49087001202D49087000202D496E
:102EB00008702448C06B40F21A3108432149C863A6
:102EC0000846C06A40F00800C8624FF0FF3500E0D5
:102ED0006D1E2548006800F4005008B9002DF7D198
:102EE0001DB9FEF797FE042077E64FF0FF3500E0AE
:102EF0006D1E1C48007820B91848007808B9002DCC
:102F0000F6D10DB9042068E61448007810B11348D2
:102F1000007862E640F2FF50FEF7E4FB02A8FEF7FD
:102F200043F8064603E002A8FEF73EF806463EB91F
:102F30009DF808000728F6D09DF808000628F2D072
:102F400030464AE6008001409C1200200400002028
:102F500088120020080000200C0000200E00002035
:102F60000D0000200F0000200004024000B587B0D3
:102F700001210820FEF7E6FA01218803FEF7D2FAC4
:102F80004FF48050ADF8180010208DF81B0003207E
:102F90008DF81A0006A92048FDF772FF4FF4805102
:102FA0001D48FDF7F8FF4FF46040ADF818001820F9
:102FB0008DF81B0003208DF81A0006A91648FDF7AE
:102FC0005FFF4FF460411448FDF7E5FF0020ADF8C6
:102FD00010000120ADF80C000220ADF80A00072017
:102FE000ADF814000020ADF80800ADF80400ADF80D
:102FF00012004FF48270ADF806004FF40070ADF887
:103000000E0001A9054800F041F80121034800F035
:1030100023F807B000BD0000000C0140003800405C
:1030200010B5044600BF02210A4800F021F800282C
:10303000F9D02146074800F027F800BF01210548D4
:1030400000F016F80028F9D0024800F01AF8C0B2D3
:1030500010BD00000038004021B1028842F040025B
:10306000028004E002884FF6BF731A400280704766
:103070000246002013890B400BB1012000E0002024
:1030800070470146888970478181704710B50022DA
:10309000028802F441520B884C8823438C882343D6
:1030A000CC8823430C8923434C8923438C892343B5
:1030B000CC8923431A430280838B4FF2FF74234051
:1030C00083830B8A038210BD704710B500F002F8AD
:1030D00010BD00000CB5002001900090334800683E
:1030E00040F480303149086000BF3048006800F487
:1030F000003000900198401C0190009818B9019888
:10310000B0F5A06FF1D12948006800F4003010B18B
:103110000120009001E0002000900098012843D198
:103120002348006840F01000214908600846006804
:1031300020F0030008600846006840F002000860C4
:103140001A4840681949486008464068486008467F
:10315000406840F4806048600846406820F47C1075
:1031600048600846406840F4E81048600846006837
:1031700040F08070086000BF0C48006800F00070EC
:103180000028F9D00948406820F00300074948604A
:103190000846406840F00200486000BF03484068AD
:1031A00000F00C000828F9D10CBD0000001002400E
:1031B00000200240042808D14FF0E021096941F0C5
:1031C00004014FF0E022116107E04FF0E0210969AE
:1031D00021F004014FF0E0221161704770470000B8
:1031E00010B51348006840F0010011490860084616
:1031F0004068104908400E494860084600680E497A
:1032000008400B4908600846006820F480200860E8
:103210000846406820F4FE0048604FF41F008860B4
:10322000FFF753FF4FF000600449086010BD000035
:10323000001002400000FFF8FFFFF6FE08ED00E07E
:1032400010B501210A4800F035F801280AD10949D2
:10325000086980470021064800F048F864210448C6
:1032600000F042F80121024800F009F810BD00000A
:103270000008004078010020CA4302827047CA4318
:103280000282704721B1028842F00102028004E00C
:1032900002884FF6FE731A40028070470146888C00
:1032A000704702460020138A0B400BB1012000E05A
:1032B0000020704730B50246002000230024158A04
:1032C00005EA0103958905EA010413B10CB1012057
:1032D00000E0002030BD1AB183890B43838102E0F6
:1032E00083898B43838170478185704781847047D0
:1032F000002202881D4B98420ED01D4B98420BD0E5
:10330000B0F1804F08D01B4B984205D01A4B984221
:1033100002D01A4B984204D14FF68F731A404B8853
:103320001A43174B984207D0164B984204D04FF6D9
:10333000FF431A40CB881A4302808B8883850B8811
:1033400003850A4B98420BD0094B984208D00E4B8C
:10335000984205D00D4B984202D00D4B984201D1B6
:103360000B7A03860123838270470000002C014002
:10337000003401400004004000080040000C004000
:103380000010004000140040004001400044014093
:10339000004801407FB505460C4601210420FEF798
:1033A000C1F8ADF80850ADF804400020ADF80A00AF
:1033B000ADF8060001A90D48FFF79AFF012241214F
:1033C0000A48FFF788FF1E208DF8000003208DF8C3
:1033D00001008DF8020001208DF803006846FDF71A
:1033E00035FE01210148FFF74DFF7FBD0008004079
:1033F00010B540F225511D4800F04AF810B31B48A3
:1034000000F002F9C4B21A48008800F40040C8B9BC
:103410001748008800F4804060B10A2C03D00020D7
:103420001349088020E01248008840F40040104909
:10343000088019E00D2C06D10D48008840F480402A
:103440000B49088010E00A480088C0F30D000949C4
:103450000C5407480088401C05490880084600882D
:10346000C72801DD0020088010BD000000380140A1
:10347000440000203019002021B1828942F400521A
:10348000828104E082894DF6FF731A408281704781
:1034900070B50246002400230025002040F66A167D
:1034A000B14200D100BFC1F3421501F01F03012654
:1034B00006FA03F3012D02D19689334006E0022D6E
:1034C00002D1168A334001E0968A33400C1201265D
:1034D00006FA04F41688344013B10CB1012000E060
:1034E000002070BDF0B50346002400260025002012
:1034F00040F66A17B94200D100BF1846C1F3421422
:1035000001F01F06012707FA06F5012C01D10C3046
:1035100004E0022C01D1103000E014301AB1076829
:103520002F43076002E00768AF430760F0BD00006B
:103530002DE9F04786B005460E460024A24600BF9E
:10354000A1460027B08900B100BF2F462C8A4CF657
:10355000FF700440F08804432C82AC894EF6F310CF
:103560000440B08831890843718908430443AC8121
:10357000AC8A4FF6FF400440B0890443AC8201A8F6
:10358000FDF7F0FF1F48874202D1DDF810A001E0EF
:10359000DDF80CA0A88900F4004040B10AEBCA0095
:1035A00000EB0A1031684900B0FBF1F807E00AEBC4
:1035B000CA0000EB0A1031688900B0FBF1F8642002
:1035C000B8FBF0F004012009642101FB1089A889EF
:1035D00000F4004040B1322000EBC900B0FBF1F034
:1035E00000F00700044308E0322000EB09106421DA
:1035F000B0FBF1F000F00F0004432C8106B0BDE8F1
:10360000F08700000038014001468888C0F30800B8
:10361000704700BFFEE7000010B500F015F900F09C
:10362000AFF8002005490860C720FFF7F9FC01202A
:103630000349C1F8B00100F0A3F810BDB0812142E8
:103640000080214210B50446240300F0FDF800F08C
:1036500097F800200B4908602020FFF7E1FCC4F335
:103660000740FFF7DDFCC4F30720FFF7D9FCE0B209
:10367000FFF7D6FC01200449C1F8B00100F080F842
:1036800010BD0000B08121420080214210B5FFF73B
:103690006DFC00F051F80149088010BD00000020C9
:1036A0002DE9F04106460C461746214610A0FCF7CE
:1036B00003FE0020144908600320FFF7B1FCC4F3A7
:1036C0000740FFF7ADFCC4F30720FFF7A9FCE0B209
:1036D000FFF7A6FC002504E0FF20FFF7A1FC7055D2
:1036E0006D1CBD42F8DB012007490860BDE8F08190
:1036F0005732355158583A205245414420414444AC
:10370000522025642E0D0A00B081214210B50024FC
:103710000020074908600520FFF782FCFF20FFF723
:103720007FFC044601200349C1F8B001204610BDCA
:10373000B08121420080214210B5002400200E49B2
:1037400008609020FFF76CFC0020FFF769FC002068
:10375000FFF766FC0020FFF763FCFF20FFF760FC2B
:1037600044EA0024FF20FFF75BFC044301200349E7
:10377000C1F8B001204610BDB08121420080214235
:1037800010B500BFFFF7C2FF00F001000028F9D11B
:1037900010BD00002DE9F04781460F4616464FEA5E
:1037A0001738C7F30B0ACAF58054A64200DC34462A
:1037B00044E04FEA08314FF480522248FFF770FF8F
:1037C000002508E00AEB05001E49085CFF2800D030
:1037D00003E0681C85B2A542F4DB00BFA54216DAFF
:1037E0004046FFF72FFF002507E019F8050005EB1D
:1037F0000A01144A5054681C85B2A542F5DB4FEA11
:1038000008314FF480520F4800F02EF804E02246B1
:103810003946484600F028F8A64200D10FE008F1EA
:1038200001084FF0000AA1442744301B86B2B6F5C8
:10383000805F02DD4FF4805400E03446B9E700BFFA
:10384000BDE8F0876C02002010B500200449086034
:103850000620FFF7E5FB01200249C1F8B00110BDC9
:10386000B0812142008021422DE9F04107460E46F9
:103870001446F0B2C0F58075AC4200DC254612E07B
:103880002A463146384600F013F8AC4200D10BE02E
:103890002F442E44601B84B2B4F5807F02DD4FF4C8
:1038A000807500E02546EBE700BFBDE8F081000031
:1038B0002DE9F04106460C461746FFF7C5FF0020EC
:1038C0000F4908600220FFF7ABFBC4F30740FFF786
:1038D000A7FBC4F30720FFF7A3FBE0B2FFF7A0FBB1
:1038E000002503E0705DFFF79BFB6D1CBD42F9DB1B
:1038F000012003490860FFF743FFBDE8F0810000A5
:10390000B081214230380A2801D2012070470020BE
:103910007047014600BF00207047000070B50446A4
:103920000D4600202071401EE0622946204603F02B
:1039300011FB08B1032070BD94F82E1294F82F02E9
:1039400041EA00204AF65521884201D00220F2E7E0
:1039500094F86900010694F8680041EA004194F87F
:10396000670041EA002094F86610084320F07F4089
:103970000D49884201D10020DDE794F88500010659
:1039800094F8840041EA004194F8830041EA002061
:1039900094F88210084320F07F400349884201D107
:1039A0000020C8E70120C6E746415400024600E077
:1039B000521C107810B110788842F9D110787047F5
:1039C00070B503460D46586A021D680A1E68B6782F
:1039D000B0FBF6F400BF02CA09B9002070BD8C42EA
:1039E00000D202E0641A121DF5E700BF10682044FF
:1039F000F4E70246891E5069801E884201D80020E3
:103A000070479378906A01FB0300F9E72DE9F047CE
:103A100005460C46207820F04000401E00EB800157
:103A200001EBC00600274FF0010800BF1A48C05D37
:103A3000205C1949C95D2144497840EA0129B8F15F
:103A4000000F10D0484602F061FA8046FF2E07D2E0
:103A50003146761C35F8110002F058FA404508D07E
:103A60000020BDE8F0874FF6FF70814501D00020AF
:103A7000F7E7781C07460D28D8D3207800F04000DF
:103A800038B1B8F1000F04D035F8160008B10020A5
:103A9000E7E70120E5E70000108D0008014600205F
:103AA00002E04910421CD0B20129FAD170472DE939
:103AB000F04704468946B9F1000F06D1E76817B10F
:103AC0006069B84215D8012713E04946204602F044
:103AD000FFFC0646022E02D20120BDE8F087701CD2
:103AE00008B93046F9E76069B04201D93046F4E7D9
:103AF0004F463D4600BF6D1C6069A84204D80225B0
:103B0000BD4201D90020E8E72946204602F0E0FC4A
:103B1000064606B909E0701C08B1012E01D13046F5
:103B2000DBE7BD42E7D10020D7E700BF6FF070426E
:103B30002946204603F05EFB8046B8F1000F08D10D
:103B4000B9F1000F05D02A464946204603F052FB42
:103B50008046B8F1000F0BD1E5602069401C78B1B8
:103B60002069401E2061607940F00100607107E02B
:103B7000B8F1010F02D14FF0FF3000E001200546FF
:103B80002846AAE72DE9F34F83B0814604980068E0
:103B9000019002E00198401C0190019800782F28C4
:103BA000F8D0019800785C28F4D0D9F81CA0002542
:103BB0002F4600BF38467F1C01990C5C202C03DB8C
:103BC0002F2C01D05C2C00D132E0FF2D03D3062036
:103BD00005B0BDE8F08FE4B2812C13DBE0B2FE2823
:103BE00010DC38467F1C01990E5C06EB042084B281
:103BF000402E01DB7E2E05DD802E01DBFE2E01DD59
:103C00000620E5E70121204602F034F904460CB90C
:103C10000620DDE7802C06DA214671A0FFF7C6FEFC
:103C200008B10620D4E728466D1C2AF81040C1E7E9
:103C300000BF0198C11904980160202C01DA04200A
:103C400000E00020804608E0681E3AF81040202C72
:103C500002D02E2C00D002E06D1E002DF4D100BF4A
:103C60000DB90620B4E700202AF815000B22202108
:103C7000D9F8180002F0DEFD002700E07F1C3AF8BA
:103C800017002028FAD03AF817002E28F6D00FB1E6
:103C900048F0030800E06D1E25B1681E3AF81000D8
:103CA0002E28F8D10020064602904FF0080B00BFE6
:103CB00038467F1C3AF8104004B963E0202C03D04A
:103CC0002E2C04D1AF4202D048F00308F0E702984E
:103CD000584501D2AF4214D1BBF10B0F02D148F0CD
:103CE00003084FE0AF4201D048F00308AF4200D9CB
:103CF00048E02F46082002904FF00B0BB006060E4E
:103D0000D6E7802C09DB204602F000F90021009064
:103D100002F0B0F8044648F00208FF2C11DDABF1C8
:103D200001000299884204D848F00308CDF808B091
:103D3000BEE72212D9F818300298411C02911A5499
:103D400019E024B1214629A0FFF730FE18B15F2405
:103D500048F003080FE0412C04DB5A2C02DC46F04B
:103D6000020608E0612C06DB7A2C04DC46F0010632
:103D7000A4F1200084B2D9F818300298411C0291B5
:103D80001C5495E700BFD9F818000078E52803D146
:103D90000520D9F818100870BBF1080F01D1B00642
:103DA000060E06F00C000C2803D006F003000328D2
:103DB00001D148F0020808F0020058B906F00300EB
:103DC000012801D148F0100806F00C00042801D1A8
:103DD00048F00808D9F8180080F80B800020F7E6B2
:103DE000222A3A3C3E3F7C7F000000002B2C3B3DCA
:103DF0005B5D000010B56FF00400FFF7DBF90A48C7
:103E000000680A49B0FBF1F00949087008460078DB
:103E100000EB4001C1EBC0104FF6FF7101EAC0009A
:103E20000449088010BD00001400002000127A0030
:103E30003C0000203E0000200146114A12884A43FF
:103E40004FF0E0235A6100229A611A46126942F04B
:103E500001021A6100BF4FF0E022106900F0010278
:103E60001AB100F48032002AF5D04FF0E022126936
:103E700022F001024FF0E0231A6100229A6170479C
:103E80003E0000202DE9F04104460E460021204668
:103E900000F04FFA0546EDB9002700BF2169206800
:103EA00003F058F8054605B113E060690078E5288D
:103EB00002D06069007820B9781C0746B04201D171
:103EC00007E000270121204600F07FF80546002D7D
:103ED000E4D000BF042D00D107252846BDE8F081BD
:103EE0002DE9F04704460021204600F022FA07465B
:103EF00017B13846BDE8F0874FF0FF09CA464FF6C4
:103F0000FF70208400BF2169206803F023F8074672
:103F100007B157E065692E780EB9042752E0E87AB8
:103F200000F03F08E52E05D008F0080040B1B8F1D8
:103F30000F0F05D04FF0FF094FF6FF7020843AE0D5
:103F4000B8F10F0F1CD1E06978B306F0400030B132
:103F500095F80DA026F04006B146E08820844E4535
:103F60000AD1687B504507D12946E069FFF74EFD2D
:103F700010B1A9F1010000E0FF2000F0FF091AE0F4
:103F8000B9F1000F05D1284603F038FA504500D1A9
:103F900018E0A069C07A00F0010038B90B22284669
:103FA000A16902F027FC08B90CE004E04FF0FF091A
:103FB0004FF6FF7020840021204600F006F80746E7
:103FC000002FA0D000BF384694E72DE9F041044609
:103FD0008846E088461CB0B208B1206910B90420B8
:103FE000BDE8F08106F00F0000286BD12069401C6D
:103FF0002061E06828B920680089B04262D80420B6
:10400000EEE720688078401E00EA1610002859D19B
:10401000E168206802F05CFA0546012D01D8022013
:10402000DEE7681C08B90120DAE720684069A84289
:1040300042D8B8F1000F01D10420D1E7E16820682F
:10404000FFF735FD05460DB90720C9E7012D01D160
:104050000220C5E7681C08B90120C1E7206803F009
:1040600041FA08B10120BBE7216801F130004FF4AB
:104070000072002102F0DEFB29462068FFF7B9FC40
:104080002168C86200270EE00120216808712068BD
:1040900003F028FA08B10120A2E72068C06A401C9A
:1040A0002168C8627F1C20688078B842ECD82068FC
:1040B000C06AC01B2168C862E56029462068FFF716
:1040C00098FC2061E6802068303006F00F0100EB9C
:1040D00041106061002083E72DE9F05F04468A46C5
:1040E0004FF0FF09CB4604274FE02169206802F01A
:1040F00031FF074607B14BE0666935780DB90427F3
:1041000046E0F07A00F03F08E52D0AD02E2D08D0C9
:1041100028F02000082801D1012000E000205045AF
:1041200002D04FF0FF0929E0B8F10F0F1AD105F0C6
:10413000400030B196F80DB025F04005A946E08862
:1041400020844D450AD1707B584507D13146E0693E
:1041500003F016F810B1A9F1010000E0FF2000F013
:10416000FF090BE0B9F1000F04D1304603F046F926
:10417000584502D04FF6FF70208409E00021204608
:10418000FFF723FF074607B102E020690028ACD102
:1041900000BF0FB1002020613846BDE8F09F2DE937
:1041A000FE4F0446D4F81880D4F81C900C224146E7
:1041B000684602F032FB00BF9DF80B0000F00100E2
:1041C00020B3002088F80B00E06101260CE03346A4
:1041D0004A466946404602F015F92046FFF780FE40
:1041E000054605B102E0761C642EF0D300BF642EB4
:1041F00002D10720BDE8FE8F042D01D02846F9E743
:104200009DF80B0088F80B00C4F81C909DF80B007B
:1042100000F0020060B1002600E0761C39F81600BC
:104220000028FAD106F119000D21B0FBF1F700E0EA
:10423000012739462046FFF725FE054645BB781E77
:10424000071E25D0E088C11B204600F072F8054605
:10425000F5B9A06903F0D2F8824600BF2169206851
:1042600002F078FE054605B111E0FAB253466169E5
:10427000E06902F031F80120216808710021204630
:10428000FFF7A3FE054615B9781E071EE6D100BF4D
:10429000C5B92169206802F05DFE054695B9202266
:1042A0000021606902F0C6FA0B22D4E9050102F090
:1042B000B4FAA069C07A00F018006169087301209F
:1042C00021680871284695E770B50446E688208C79
:1042D0004FF6FF72904201D1304600E0208C01463B
:1042E000204600F026F805460DBB00BF2169206876
:1042F00002F030FE054605B115E02022002160697C
:1043000002F098FAE52061690870012021680871BF
:10431000E088B04200D306E000212046FFF755FEBA
:104320000546002DE2D000BF042D00D1022528460D
:1043300070BD2DE9F04104460E46E680A568012DCA
:1043400003D020684069A84202D80220BDE8F0816D
:104350002DB920680078032801D12068456A45B945
:1043600020680089B04201D80220EFE72068476A40
:104370001EE0206880784FEA001812E02946206885
:1043800002F0A6F80546681C08B90120DEE7022DF8
:1043900003D320684069A84201D80220D6E7A6EBE3
:1043A00008064645EAD229462068FFF722FB074661
:1043B000E5600FB90220C9E707EB161020612068FD
:1043C000303006F00F0100EB411060610020BDE7C6
:1043D00070B50446002514B1012C0BD103E0FDF7A4
:1043E00019FC054608E0FFF751F94FF4C0400549B4
:1043F000088001E0012500BF00BF0DB1012070BDA4
:104400000020FCE76E0000202DE9F04706468946B3
:10441000154646BBB9F1000F09D0B9F1010F13D011
:10442000B9F1020F05D0B9F1030F19D106E000244C
:1044300018E04FF400702860002413E01D48B0F825
:104440005000288000240DE01A484FF40072002329
:10445000D0E912713846FBF70AFF2860002401E01A
:10446000042400BF22E0012E1FD1B9F1000F09D0B2
:10447000B9F1010F11D0B9F1020F05D0B9F1030F55
:1044800010D106E000240FE04FF4007028800024D3
:104490000AE008202880002406E0074800882860F9
:1044A000002401E0042400BF00E001242046BDE810
:1044B000F0870000D81200206E0000202DE9F041A6
:1044C00007460E4615461C464FF0000814B9042056
:1044D000BDE8F08117B1012F22D112E0E2B22946E6
:1044E0003046FDF779FF804607E0FDF793FBE2B227
:1044F00029463046FDF770FF8046B8F1000FF4D131
:1045000011E009E069024FF400723046FFF7C8F885
:104510006D1C06F50076641E002CF3D1A04602E067
:104520004FF0010800BF00BFB8F1000F01D100201B
:10453000CEE70120CCE70146002070472DE9F0418D
:1045400007460E4615461C464FF0000814B90420D5
:10455000BDE8F08117B1012F22D112E0E2B2294665
:104560003046FEF7D7FA804607E0FDF753FBE2B28C
:1045700029463046FEF7CEFA8046B8F1000FF4D156
:1045800011E009E069024FF400723046FFF702F9CA
:104590006D1C06F50076641E002CF3D1A04602E0E7
:1045A0004FF0010800BF00BFB8F1000F01D100209B
:1045B000CEE70120CCE7000010B500240EE04FF458
:1045C0000C71002002F0BEFD184941F82400084695
:1045D00050F8240000B903E0601CC4B2022CEEDBEA
:1045E00000BF4FF40A71002002F0ACFD10490860D2
:1045F0004FF40A71002002F0A5FD0E4908604FF447
:104600000071002002F09EFD0B490860022C0AD1C7
:104610000748006838B10748006820B108460068BC
:1046200008B1002010BD0120FCE700007000002050
:10463000780000207C0000208800002070B505462E
:10464000284601F06BFA044634B9284604F03EF8D7
:1046500004460CB900202860204670BD70B50446A1
:10466000204604F033F805460DB9002020602846A6
:1046700070BD2DE9F74F82B08A46002202A9049846
:1046800001F060FC019004980468019800286DD145
:10469000D4E90410801E814203D82069CAF80000C2
:1046A00064E094F800B00026BBF1010F1CD1022792
:1046B00000BF3946204601F00BFF804608F101009B
:1046C00010B9012001900EE0B8F1010F02D10220D3
:1046D000019008E0B8F1000F00D1761C781C074665
:1046E00061698842E5D33AE06769206A00904FF03B
:1046F0000009002500BFB9F1000F0ED10098421C3F
:1047000001462046009202F025FC0190019800B17C
:1047100024E004F130054FF40079BBF1020F09D118
:104720002878697840EA012000B9761CAD1CA9F10F
:10473000020910E0E8780006A97840EA01406978AB
:1047400040EA01202978084320F0704000B9761C27
:104750002D1DA9F10409781E071ECCD100BF2661CA
:10476000607940F001006071CAF80060019805B0FE
:10477000BDE8F08F2DE9F74189B00D469046002243
:1047800009A9684601F0DEFB044624BB1DB30020E6
:10479000029000216846FFF7CCFD0446DCB90121F8
:1047A0006846FFF799FC044684B90B222846059910
:1047B00002F033F80B2700BF0020E85507B904E0EA
:1047C000781E0746285C2028F6D000BF042C02D1B2
:1047D00000202870002444BBB8F1000F25D0009AB7
:1047E0001046D16902F0B6FB0446F4B9009800788F
:1047F000032801D1432000E02720064600983030EE
:104800003044C0780106009830303044807841EA66
:104810000041009830303044407841EA002000994F
:104820003031895D0843C8F8000020460CB0BDE86F
:10483000F0812DE9FC4707468846914600243E4614
:1048400013E06B46012201A9484600F0CAFE009819
:10485000012800D00DE09DF8045000BF06F8015B70
:10486000641C0A2D00D104E000BFA8F10100A042A1
:10487000E7DC00BF0020307014B13846BDE8FC878B
:104880000020FBE72DE9F04F87B004460D46204697
:1048900003F01CFF0690069818B1069807B0BDE813
:1048A000F08FE07908B1E079F8E7606A00287CD001
:1048B000681C002843D1D4F824A05AF8040B0190B6
:1048C00002200090276967B300BF02970020039081
:1048D0000098801C009000BF04970398401C039030
:1048E0003946206801F0F4FD0746012F02D8022066
:1048F000E071D3E7781C10B90120E071CEE704988D
:10490000401C8742E8D0DDE90001884205D80398C1
:104910004AF8040B02984AF8040B20684069B84230
:10492000D3D80098616A0860DDE90001884203D8A5
:104930000020CAF80000F9E011200690F6E0E068D7
:10494000A84200D2E568A560002DF4D0691E20467B
:10495000FFF736F8606161692068FFF74AF8814621
:10496000B9F1000F02D10220E07197E7206880784A
:10497000401E691E00EA512081442089C0F30800CE
:104980000028D8D0A0694845D5D0A07900F04000D3
:1049900080B121684878012304F12801A269FFF75A
:1049A000CDFD18B10120E07178E712E0A07920F088
:1049B0004000A0712168487801234A4604F128018B
:1049C000FFF77CFD10B10120E07167E7C4F8189093
:1049D000ACE0E068A84204D2A07900F0020000B97F
:1049E000E568A06805904FF0000BC4F808B0002DF2
:1049F00069D0206880784FEA4028059890B1681EF9
:104A0000B0FBF8F10598401EB0FBF8F0814209D3E5
:104A10000598401EA8F101018843A060A0682D1AE6
:104A2000666912E026697EB900212068FFF73FF829
:104A30000646012E02D10220E0712FE7701C10B94A
:104A40000120E0712AE726616661CEB324E0A079F7
:104A500000F0020038B131462068FFF728F806461A
:104A600036B945461AE03146206801F031FD064668
:104A7000701C10B90120E07110E7012E03D92068E5
:104A80004069B04202D80220E07107E76661A06881
:104A90004044A060A5EB08054545D8D800BFA068F4
:104AA0002844A060C5F3080050B131462068FEF7E5
:104AB000A0FF8346BBF1000F03D10220E071EDE6B9
:104AC00001E00BEB552B2089C0F3080020B3A0694F
:104AD000584521D0A07900F0400078B1216848788D
:104AE000012304F12801A269FFF728FD10B101207C
:104AF000E071D3E6A07920F04000A07121684878E9
:104B000001235A4604F12801FFF7D8FC10B1012017
:104B1000E071C3E6C4F818B0D4E90201884205D9AF
:104B2000A068E060A07940F02000A0710698B5E68A
:104B30002DE9F14F8CB001F044FD064601220CA98D
:104B400003A801F0FFF90546002D7BD14FF400705A
:104B500001F0CEF98046B8F1000F03D111200DB05D
:104B6000BDE8F08FCDF82880CDF824D003A80C99AB
:104B700001F0F2FB054605B9082500BF042D7AD1E6
:104B800000210398FEF793FF0746002507B9072584
:104B9000012F00D10225781C00B901251DB9039809
:104BA00002F0A0FC0546002D5BD139460398FEF7C4
:104BB00020FF8246039800F130044FF40072002178
:104BC000204601F037FE0B222021204601F032FE64
:104BD0002E2020701020E072A675310AE175310C8C
:104BE0002176310E61763946204602F0FFFB202205
:104BF000214604F1200001F010FE2E2084F821004F
:104C0000DDF814B003980078032804D10398406AB3
:104C1000584500D1AB46594604F1200002F0E6FBAE
:104C2000039890F8029018E00398C0F82CA00AF1BD
:104C3000010A012003990871039802F053FC05460C
:104C40000DB10DE030E04FF400720021204601F07C
:104C5000F1FDA9F1010000F0FF09B9F1000FE3D166
:104C600000BF1DB903A8FFF79AFA054625B13946DA
:104C7000039802F085FB14E0089C1020E072A675F2
:104C8000310AE175310C2176310E617639462046C4
:104C900002F0ACFB012003990871039802F0BEFBFF
:104CA0000546404601F02BF9284658E72DE9F74F15
:104CB00090B090461198012803DD132013B0BDE891
:104CC000F08F10A801F007FD0F900F98002801DA6F
:104CD0000B20F3E7FC490F9851F820B0BBF1000F0F
:104CE00001D10C20EAE700208BF800000F98C0B239
:104CF0000C9000200B900C98FFF76AFB0190019834
:104D000000F0010008B10320D8E7019800F004008A
:104D100008B10A20D2E700BF04AA01210C98FFF7CE
:104D200073FB10B90498802801D20120C6E71198BE
:104D300008B1002000E03F2081460498A0EB090064
:104D40000490A8F1010000EA080008B14FF0000843
:104D5000B8F1000F13D14FF4FA610498B0FBF1F0F1
:104D60000A904FF0000A01E00AF1010AD74830F832
:104D70001A100A988142F7D8D54830F81A80B8F549
:104D8000007F01D34FEA5828B8F1000F01D14FF04E
:104D90000108B8F1800F01D94FF080080498B0FBEA
:104DA000F8F7012540F6F670874200D302254FF64A
:104DB000F670874200D30325032D0AD1082000EBAB
:104DC000870000F2FF10460A202003900020029086
:104DD00011E0012D05D107EB4700401C4008C01C25
:104DE00001E07800001D064606F2FF10460A012089
:104DF000039020200290039848440790079830447D
:104E00000690029906980844059005984044A0EB46
:104E100009000499884201D90E204FE709AA03210D
:104E20000C98FFF7F1FA28B9099818B10998B0F56C
:104E3000004F01D901200990099905980844401EA6
:104E4000491E8843099009990598081A0990032D6D
:104E500008D10999039808440390099907980844D0
:104E6000079001E009980644DDE90301081A811B57
:104E70000298081AB0FBF8F7022D03D140F6F6703D
:104E8000874205D3032D05D14FF6F670874201D234
:104E90000E2013E7032D02D10C200D9010E0012D00
:104EA00006D10498B0F5803F02D201200D9007E0B2
:104EB0000498B0F5803F01D2042000E006200D9058
:104EC00000BF119810B1F0200E9044E04FF4007232
:104ED00000210BF1300001F0ADFC0BF5F77401205F
:104EE0006070A0700020E0700D982071FE2060714D
:104EF000049848443F21B0FBF1F0FF21B0FBF1F0F2
:104F000009903F21099841EA9000A0710998E07149
:104F10003F20207200216172A172E1720498207317
:104F20000498010A61730498010CA1730498010E9E
:104F3000E17355218BF82E12AA218BF82F12012331
:104F400000220BF130010C98FFF7F8FA08B10120AC
:104F5000B4E6F8200E900BF130044FF400720021FB
:104F6000204601F067FC0B225AA1204601F055FCB7
:104F70004FF4007A84F80BA04FEA1A21217384F8C9
:104F80000D800398A0730398010AE1730120207437
:104F9000032D01D1002001E04FF40070824684F817
:104FA00011A04FEA1A21A1740498B0F5803F05D2F0
:104FB0000498E0740498010A217510E0049884F8BC
:104FC00020000498C0F30721212001550498C0F364
:104FD0000741222001550498010E232001550E9807
:104FE00060753F20207600216176FF20A076E17673
:104FF00084F81C904FEA192161774FEA1941A17793
:105000004FEA1961E17701F0DCFA0990032D3ED1F6
:10501000099884F843000998C0F3072144200155FA
:105020000998C0F30741452001550998010E462013
:10503000015584F82460C6F3072125200155C6F3E5
:10504000074126200155310E27200155022084F802
:105050002C0000212D2001552E2001552F20015517
:10506000012084F8300031200155062084F83200F8
:1050700033200155802084F84000292084F8420024
:10508000132217A104F1470001F0C7FB37E009988C
:1050900084F827000998C0F30721282001550998B2
:1050A000C0F30741292001550998010E2A20015516
:1050B000A675310AE175802084F82400292084F83F
:1050C0002600132216E00000640000201E8D000858
:1050D000348D0008EBFE904D53444F53352E300075
:1050E0004E4F204E414D4520202020464154333222
:1050F0002020200079A104F12B0001F08EFB552027
:1051000084F8FE01AA2140F2FF10015501234A460E
:1051100021460C98FFF712FA08B10120CEE5032DC5
:1051200006D1012309F1060221460C98FFF706FA81
:10513000079808904FF0000A61E04FF400720021D8
:10514000204601F077FB0E980990032D14D0012D15
:1051500001D1674801E06FF0FF0009990843099009
:10516000099820700998000A60700998000CA070D6
:105170000998000EE07019E0099860F0FF000990AE
:10518000099820700998000A60700998000CA070B6
:105190000998000EE070FF202071FF216171A1715C
:1051A000E17120726172A1720F21E1720898411CB5
:1051B00002460123089121460C98FFF7BFF908B178
:1051C00001207BE54FF400720021204601F032FB04
:1051D000012009900EE00898411C02460123089125
:1051E00021460C98FFF7AAF908B1012066E5099855
:1051F000401C09900998B042EDD30AF1010ABAF1B6
:10520000000F9AD0032D01D1404600E0029882465B
:1052100000BF0898411C02460123089121460C98C2
:10522000FFF78CF908B1012048E5AAF10100B0F1BF
:10523000000AEED1032D46D152202070607061200B
:10524000A0704120E070722084F8E401722140F2E5
:10525000E51001554121401C01556121401C0155BB
:10526000781E84F8E801C0F3072140F2E9100155E7
:10527000781EC0F307414FF4F5700155781E010EFA
:1052800040F2EB100155022084F8EC01002140F2BD
:10529000ED100155401C0155401C0155552084F866
:1052A000FE01AA2140F2FF100155012309F101027C
:1052B00021460C98FFF742F9012309F10702214624
:1052C0000C98FFF73BF9002211460C98FFF79CF869
:1052D00008B10120F2E40020F0E400004E4F204E1F
:1052E000414D4520202020464154202020202000F0
:1052F00000FFFF00F7B582B016460398019001A8A1
:1053000001F0E9F90546002D02DA0B2005B0F0BDE9
:105310000E4850F825400CB100202070029810B1C2
:105320000020029908700949029841F82500029866
:1053300008B1012E01D00020E8E7002203A902A84D
:1053400000F000FE07463846E0E700006400002059
:105350002DE9F7478DB0054616461DB9092010B056
:10536000BDE8F0870020286006F01F0626F0010245
:105370000EA904A800F0E6FD0746002F73D14FF4F4
:10538000007000F0B5FD8146B9F1000F01D1112088
:10539000E5E7CDF82C9001A80A9004A80E9900F03A
:1053A000DBFF0746099C0FB904B9062706F01C006D
:1053B000002851D04FB1042F03D104A8FEF7EFFE0F
:1053C000074646F00806099C09E0E07A00F0110063
:1053D00008B1072703E006F0040000B10827002FFA
:1053E0004AD106F00800002846D001F0EAF88046CD
:1053F00084F80E804FEA1821E1734FEA18412174B6
:105400004FEA186161740020E07220770021617713
:10541000A177E1772146049801F082F982460021C4
:10542000204601F0E3FF012004990871BAF1000F52
:1054300022D00498D0F82C805146049801F0A0FFA7
:105440000746CFB9AAF101000499C8604146049803
:1054500001F080FD07460FE077B9E07A00F0100018
:1054600010B1042708E031E006F0020020B1E07A34
:1054700000F0010000B1072747B906F0080008B1A5
:1054800046F020060498C06AE8612C62484600F0A5
:1054900036FDDFB9AE710020E8712146049801F0B5
:1054A0003FF92861E07F0106A07F41EA0041607F6B
:1054B00041EA0020217F0843E8600020A860A8613D
:1054C0006862049828602868C088A880384646E743
:1054D00073B584B0044614B9092006B070BD00222B
:1054E00005A903A800F02EFD0546002D2FD1039835
:1054F00020604FF4007000F0FBFC06460EB911204E
:10550000EBE7E661C4F818D02046059900F024FFC7
:105510000546304600F0F3FCB5B9606958B16069E2
:10552000C07A00F0100028B16169039801F0F8F822
:10553000A06000E005253DB90398C088A080002147
:105540002046FEF7F6FE0546042D00D105250DB1D7
:10555000002020602846C0E730B595B004460D46CF
:105560000295002003900490214602A801F0E3FE7A
:10557000039800280DDB01AB05A9DDE9020200F06C
:1055800084FB30B901990398884202D1049815B080
:1055900030BD4FF0FF30FAE730B595B004460D4608
:1055A000029500200390049004E014F8011B02A867
:1055B00001F0C1FE20780028F7D1039800280DDB08
:1055C00001AB05A9DDE9020200F05FFB30B90199EA
:1055D0000398884202D1049815B030BD4FF0FF30D7
:1055E000FAE72DE9FF4F83B0044615469A46DDF8E9
:1055F00010B00020CAF80000204603F067F80290BF
:10560000029818B1029807B0BDE8F08FE07908B1B0
:10561000E079F8E7A07900F0010008B90720F2E787
:10562000D4E90210401A00900098854200D9009DEC
:10563000AAE02089C0F30800002876D1206880788D
:10564000401EA16800EA512000F0FF09B9F1000FE7
:105650001FD1A06810B9206901900CE0606A28B1E0
:105660002046A168FEF7ACF9019004E0616920686A
:1056700000F02EFF01900198022802D20220E07172
:10568000C1E70198401C10B90120E071BBE7019807
:10569000606161692068FEF7ACF9064616B9022020
:1056A000E071B0E74E444FEA5528B8F1000F29D019
:1056B00009EB080021688978884203D9206880783E
:1056C000A0EB090821684878434632465946FEF760
:1056D000F5FE10B10120E07195E7A07900F04000DF
:1056E00068B1A069801B404509D2A169891B0BEBF9
:1056F00041204FF4007204F1280101F08EF84FEAC6
:10570000482737E0A069B04220D0A07900F04000DF
:1057100080B121684878012304F12801A269FEF7CD
:105720000DFF18B10120E0716DE710E0A07920F0C5
:105730004000A071216848780123324604F1280115
:10574000FEF7BCFE10B10120E0715CE7A661208984
:10575000C0F30800C0F50077AF4200D92F4620897A
:10576000C0F3080204F1280011183A46584601F027
:1057700054F800BFBB44A0683844A060DAF80000C9
:105780003844CAF80000ED1B002D7FF452AF002012
:1057900039E7FEB504460F46204602F097FF05465E
:1057A000002D2DD12FB900212046FEF7C2FD054660
:1057B00026E04FF4007000F09BFB06460EB9112066
:1057C000FEBDE661C4F818D000212046FEF784FC37
:1057D0000546042D02D10020206100256DB939460F
:1057E000204600F0F0FE00212046FEF7EEFB0546C5
:1057F000042D02D1002020610025304600F07FFBFF
:105800002846DDE72DE9F3419CB001221CA913A82D
:1058100000F098FB0446002C7ED113980A904FF4B8
:10582000007000F065FB07461FB911201EB0BDE8EF
:10583000F0811A9701A8199013A81C9900F08CFD0B
:10584000044600BF002C69D1189808B9042465E00B
:10585000189800F10B01152204A800F0DEFF2422A5
:1058600013A90AA800F0D9FF1DA800F034FF0028F2
:1058700005DB0AA81D9900F06FFD044600E00B242B
:1058800004B90824042C49D10AA8FEF788FC044670
:10589000002C43D10F9D13220DF1120105F10D00D3
:1058A00000F0BBFF9DF8100040F02000E8720120DE
:1058B00013990871E87A00F0100018B30C99159844
:1058C00088421FD02946139800F02AFF804641469F
:1058D0001398FEF78EF806460EB9022412E0314600
:1058E000139801F037FB0446139800F150054CB9AA
:1058F00068782E2806D128460C9901F077FD012002
:105900001399087154B913A8FEF7DEFC04462CB9AC
:10591000139801F083FD00E003E00446384600F0F0
:10592000EEFA204682E700002DE9F14F8CB001220B
:105930000CA903A800F006FB8146B9F1000F03D0C3
:1059400048460DB0BDE8F08F00208DF8000000271C
:1059500000E07F1C0C98C05D0028FAD100E07F1E9B
:1059600027B1781E0C99085C2028F8D0002F64D04D
:105970000026B04600BF3046761C0C990C5C812C8A
:1059800020DBE0B2FE281DDCB8F10A0F18D2BE42BF
:1059900016D20C98805D402803DB0C98805D7E2831
:1059A00007DD0C98805D80280ADB0C98805DFE285E
:1059B00006DC3046761C0C99085C40EA042000E0C6
:1059C000002084B20121204600F054FA834600F002
:1059D0009DFA8246002100F04DFA04465CB1214652
:1059E0004AA0FDF7E3FF30B9FF2C01DD0A2000E0FB
:1059F0000B20404501D80620A3E7FF2C05DD22122D
:105A0000404608F101080DF80020E2B2404608F1D6
:105A100001080DF80020BE42ADD305E0202241462A
:105A200008F101080DF80120B8F10B0FF6D39DF82D
:105A30000000E52801D1062083E700200590002121
:105A400003A8FEF776FC8146B9F1000F5BD1012176
:105A500003A8FEF741FB8146B9F1000F21D19DF863
:105A6000000098B10B226946089800F0D6FE00F0BD
:105A7000A8FD054608998D75290A0898C175290C55
:105A800008980176290E0898417602E0E5200899E9
:105A90000870012003990871039801F0BFFC81464A
:105AA00031E0B9F1040F2ED14FF000099DF800004C
:105AB00048B3012103A8FEF7E5F98146B9F1000FCB
:105AC00021D120220021089800F0B4FE0B22694663
:105AD000089800F0A2FE08200899C87200F071FD35
